:020000040800F2
:1000000000800120214500084144000843440008C5
:100010004544000847440008494400080000000027
:100020000000000000000000000000004B44000839
:100030004D440008000000004F44000851440008EF
:1000400071450008714500087145000871450008B8
:1000500071450008714500087145000871450008A8
:100060007145000871450008714500087145000898
:100070007145000871450008714500087145000888
:100080007145000871450008714500087145000878
:100090007145000871450008714500085544000885
:1000A0007145000871450008714500087145000858
:1000B0007145000871450008714500087145000848
:1000C0007145000871450008714500087145000838
:1000D0007145000871450008714500087145000828
:1000E0007544000871450008714500087145000815
:1000F0007145000871450008714500087145000808
:1001000071450008714500087145000871450008F7
:1001100071450008714500087145000871450008E7
:1001200071450008714500087145000871450008D7
:1001300071450008714500087145000871450008C7
:1001400071450008714500087145000871450008B7
:1001500071450008714500087145000871450008A7
:100160007145000871450008714500087145000897
:100170007145000871450008000000000000000003
:080180007145000871450008FB
:1001900010B5054C237833B9044B13B10448AFF3C1
:1001A00000800123237010BD4C01002000000000DE
:1001B000344E000808B5034B1BB103490348AFF3A5
:1001C000008008BD0000000050010020344E0008EF
:1001D00001F0FF01102A2BDB10F0070F08D010F8F8
:1001E000013B013A8B422DD010F0070F42B3F6D1FC
:1001F000F0B441EA012141EA014122F007047FF015
:1002000000070023F0E80256083C85EA010586EA6B
:10021000010685FA47F5A3FA87F586FA47F6A5FAA7
:1002200087F68EB9EED1F0BC01F0FF0102F00702B3
:1002300032B110F8013B013A83EA010313B1F8D15E
:100240000020704701387047002D06BF354603383F
:10025000073815F0010F07D1013015F4807F02BF78
:10026000013015F4C03F0130F0BC0138704700BFC9
:1002700053B94AB9002908BF00281CBF4FF0FF310D
:100280004FF0FF3000F07AB9ADF1080C6DE904CE03
:1002900000F006F8DDF804E0DDE9022304B0704761
:1002A0002DE9F0478C460D460446089E002B51D19F
:1002B0008A4217466DD9B2FA82FEBEF1000F0BD00A
:1002C000CEF1200C01FA0EF520FA0CFC02FA0EF722
:1002D0004CEA050C00FA0EF44FEA174A250CBCFB59
:1002E000FAF81FFA87F90AFB18CC45EA0C4508FB17
:1002F00009F3AB420AD9ED1908F1FF3280F02381EE
:10030000AB4240F22081A8F102083D44ED1AA4B2AC
:10031000B5FBFAF00AFB105544EA054400FB09F965
:10032000A14509D9E41900F1FF3380F00A81A14504
:1003300040F2078102383C44A4EB090440EA08403B
:100340000021002E61D024FA0EF400233460736083
:10035000BDE8F0878B4207D9002E54D0002186E8F3
:1003600021000846BDE8F087B3FA83F1002940F088
:100370008E80AB4202D3824200F2FA80841A65EB8F
:1003800003050120AC46002E3FD086E81010BDE8E2
:10039000F08712B90127B7FBF2F7B7FA87FEBEF173
:1003A000000F34D1EB1B3A0C1FFA87FC0121B3FB81
:1003B000F2F8250C02FB183345EA03450CFB08F361
:1003C000AB4207D9ED1908F1FF3002D2AB4200F27F
:1003D000D1808046ED1AA3B2B5FBF2F002FB1055B6
:1003E00043EA05440CFB00FCA44507D9E41900F1DD
:1003F000FF3302D2A44500F2B8801846A4EB0C04E7
:1004000040EA08409DE731463046BDE8F087CEF12E
:10041000200405FA0EF307FA0EF720FA04F83A0C56
:1004200025FA04F448EA0308B4FBF2F14FEA184550
:1004300002FB11441FFA87FC45EA044501FB0CF35B
:10044000AB4200FA0EF409D9ED1901F1FF3080F04A
:100450008A80AB4240F2878002393D44EB1A1FFA92
:1004600088F5B3FBF2F002FB103345EA034500FBCD
:100470000CF3AB4207D9ED1900F1FF386FD2AB4254
:100480006DD902383D44EB1A40EA01418FE7C1F1D2
:10049000200722FA07F88B4005FA01F448EA030323
:1004A00020FA07FE4FEA134CFD404EEA040EB5FB5E
:1004B000FCF94FEA1E440CFB19551FFA83F844EA75
:1004C000054509FB08F4AC4202FA01F200FA01FA10
:1004D00008D9ED1809F1FF3043D2AC4241D9A9F156
:1004E00002091D442D1B1FFA8EFEB5FBFCF00CFB10
:1004F00010554EEA054400FB08F8A04507D9E4185A
:1005000000F1FF3529D2A04527D902381C4440EA22
:100510000940A4EB0804A0FB02894C45C6464D46A1
:1005200015D312D056B1BAEB0E0364EB050404FAEE
:1005300007F7CB401F43CC40376074600021BDE813
:10054000F0871846F8E69046E0E6C245EAD2B8EBF6
:10055000020E69EB03050138E4E72846D7E7404679
:1005600091E78146BEE7014678E702383C4445E71B
:10057000084608E7A8F102083D442BE7704700BF92
:10058000F0B52A482A4C2B4B2B4D2C4F002684E8E3
:1005900049000122E26026616661E6612662EB6C39
:1005A00043F00203EB64EB6C89B003F002030193A8
:1005B000019B05924FF4406303931223049303239A
:1005C000069303A904233846079301F0BBF803A957
:1005D000384601F0B7F8AB6D43F48003AB65AB6D03
:1005E00003F480030293029BAB6B43F48003AB6381
:1005F000AB6B23F48003AB6332460F21212000F064
:10060000A9FF212000F0DAFF32460F21222000F05E
:10061000A1FF222000F0D2FF204601F04CFB314622
:10062000204601F027FD09B0F0BD00BF0058004092
:10063000C80300208126700000100240000400481A
:10064000FFF79EBF10B586B006AC4FF47A7304F87E
:10065000012D029301230A460193014600940548A7
:1006600001F093FB20B1034801F076FBFFF788FF10
:1006700006B010BDC80300207FB506AA002302F80B
:10068000013D4FF47A73029301238DE80C000A4672
:100690000146074801F030FC20B1054801F05CFB41
:1006A000FFF76EFF9DF8170007B05DF804FB00BF71
:1006B000C80300201FB54FF47A748DE81C000A4669
:1006C00001230146064801F017FC044620B1044806
:1006D00001F042FBFFF754FF204604B010BD00BFFD
:1006E000C803002010B5074CBE2063689847BC289B
:1006F00006D1054BBE201C6023689847002010BD22
:10070000012010BD0000002068010020024B1B6882
:10071000BE209B68184700BF6801002010B5074C39
:10072000BA2063689847B12806D1054BBA201C60EF
:1007300023689847002010BD012010BD1C00002038
:100740006C010020024B1B68BA209B68184700BF51
:100750006C01002010B5064C064B2360FFF770FFBC
:10076000236800211B68BE209847002010BD00BFF1
:10077000700100200C000020024B1B68BE20DB68CB
:10078000184700BF7001002010B5C4B220212046D8
:10079000FFF772FF00F0F80242F0850220462021A8
:1007A000BDE81040FFF74EBF10B5C4B2202120466F
:1007B000FFF762FF00F0F80242F085022046202198
:1007C000BDE81040FFF73EBF10B50446FFF738FF05
:1007D000E0B20F21BDE81040FFF74EBF2DE9F34115
:1007E0005FFA80F8022301AAB0214046FFF762FFBA
:1007F000022301AAB62140469DF804609DF80550E9
:10080000FFF758FF9DF805709DF80440022344EA65
:10081000072401AABA214046FFF74CFF27B29DF8F2
:1008200005309DF8044001AA44EA0324A8210223CC
:100830004046FFF73FFF9DF805209DF8043043EA4E
:1008400002231BB2DB1B07EE903A76086D08AB1B48
:10085000B8EEE77A07EE903A24B2F8EEE77AE41BB6
:1008600067EE277A07EE104AB8EEC77A87EE870A56
:1008700007EE906AF8EEE77A9FED0E7A70EE277A2F
:10088000B2EE040A67EE807AF4EEC77AF1EE10FA5F
:100890000DDCF5EE407A9FED087AF1EE10FA48BFD4
:1008A000F0EE477A87EE800A02B0BDE8F081F0EE04
:1008B000477AF7E700007A44000000002DE9F34191
:1008C0005FFA80F801AA0223B2214046FFF7F2FE48
:1008D00035214046FFF7D0FE06029DF8055006F48C
:1008E000407380019DF8046000F440701E4328436B
:1008F00004230DEB0302C508BC214046FFF7DAFED6
:100900009DF805409DF804709DF8073047EA0427DC
:100910009DF8064001AA44EA0324AA210223404686
:10092000FFF7C8FE9DF805209DF8043043EA022336
:100930003FB21BB2DB1BF60807EE903AAB1BB8EEDA
:10094000E77A07EE903A24B2F8EEE77AE41B67EE16
:10095000277A07EE104AB8EEC77AC7EE876A07EE25
:10096000906AB8EEE70A36EE800A02B0BDE8F08180
:1009700073B50024C6B201AD04F12801C9B23046F6
:10098000FFF77AFE28550134032CF5D19DF8063087
:100990009DF805201B0443EA02239DF8042013431D
:1009A0001A0248BF43F07F43642253434FF48052FE
:1009B00093FBF2F307EE903AB8EEE70ADFED027A26
:1009C00080EE270A02B070BD0000C84210B5C4B264
:1009D0001A212046FFF750FE00F0FE0242F001020D
:1009E00020461A21FFF72EFE10212046FFF744FE75
:1009F00000F08D0242F0320220461021BDE8104086
:100A0000FFF720BEFFF7E2BF10B50446FFF718FE60
:100A1000E0B20F21BDE81040FFF72EBE38B50F4BF6
:100A20000546186808B9012038BD0D4A4FF47A739D
:100A3000B3FBF0F31068B0FBF3F000F0CDFD04461B
:100A40000028F0D10F2DEED8024629464FF0FF3096
:100A500000F080FD034B20461D6038BD28000020BB
:100A6000E40000202C00002010B5032000F060FD01
:100A70000020FFF7D3FF044618B903F007FB204618
:100A800010BD0124FBE70000034A0449136809680C
:100A90000B441360704700BF14040020280000209E
:100AA000014B1868704700BF1404002038B5044695
:100AB000FFF7F6FF631C1CBF054B1B68054618BFFC
:100AC000E418FFF7EDFF401B8442FAD838BD00BFA1
:100AD0002800002030B5CC0D04F004041430C1F31C
:100AE0000451235807258D4023EA050302FA01F13A
:100AF0001943215030BD806800F0010070478068C4
:100B0000C0F380007047000037B50023019304460E
:100B1000002800F08580456D25B903F0CFFAA56562
:100B200084F85050206883689B007BD48368DD0084
:100B30007FD58368D90040F18A800021FFF7DFFF6D
:100B4000636D13F0100F636D67D1002865D123F436
:100B5000817343F0020363652068FFF7CCFF98B907
:100B60005248FFF7C8FF03465148FFF7C4FF03434D
:100B70005048FFF7C0FF034306D14F4A60689368AF
:100B800023F47C1303439360E068636B94F82020A4
:100B90000343A0680343607E012A43EA403343EAEB
:100BA000024302BF626A02F1FF3243EA4243A26A91
:100BB00022B1E06A02F470720243134320683F4A94
:100BC000C5682A401343C360FFF799FF23689A68FA
:100BD000120746D52269012A05BF186BE2691A6B14
:100BE00002F1FF3206BF20F00F00024322F00F0295
:100BF0001A63636D23F0030343F001036365084642
:100C000003B030BD019B013B0193019B002BF9D147
:100C10008FE71A6922F0010245E043F01003636593
:100C20000121ECE7836823F0204323F03F03836036
:100C30007CE78368224A23F0104323F03F0343F00C
:100C4000805383601F4B1B68B3FBF2F3DCE7636DDB
:100C500043F010036365A36D43F00103A365012115
:100C60006CE70028B6D1D86894F83020257E520071
:100C700020F4804042EA853220F002000243DA602C
:100C800094F83820012AC4D1256CE26B18692A43F4
:100C9000656C42F001022A43A56C20F4FF602A43F0
:100CA00020F0040002431A6194E700BF00000450E2
:100CB00000010450000204500003045007C0F0FF7C
:100CC000400D0300E4000020384B2DE9F041456958
:100CD0009E68082D04460F4606F01F0617D0092E01
:100CE00010D840F22122F240D1070BD50368DB680F
:100CF00013F0010F0AD0636D43F0200363650120F8
:100D0000BDE8F0819B6813F4604FF3E70425FFF71B
:100D1000C7FE804623681A68154221D0626D42F4EE
:100D200000726265DA6812F4406F0FD1627E6AB9B0
:100D30001A6810070AD5626D22F480726265626DCE
:100D4000D1045EBF626D42F001026265184A9342AF
:100D500021D0D868082D17D11D600020BDE8F08192
:100D60007A1CD8D0FFF79CFEA0EB0800874201D385
:100D7000002FCFD1636D43F004036365002384F833
:100D800050300320BDE8F08110F48040E5D10C2202
:100D90001A60BDE8F081092E05D840F2212222FA1E
:100DA00006F6F207D5D4034AD068D3E7000304500F
:100DB00000010450000004500368186C70470000E4
:100DC000F7B50023019390F85030012B05460C46EF
:100DD00000F08481012380F850300068FFF78FFE17
:100DE000002840F075814B68052B08D8023B032B87
:100DF00066D8DFE803F0025E60620C23636062681D
:100E000028682368910901F00C0100F1300702F015
:100E10001F02CE594FF01F0EC3F3846393400EFAA6
:100E200002F226EA02021343CB51FFF768FE2B6859
:100E30009A68110740F154812868FFF75CFE00288A
:100E400040F0D380E66828682368BA4AD0F8B0102A
:100E500006F0180EC3F3120722FA0EF21A4021EA26
:100E600007010A43C0F8B020B34A964240F0BD8063
:100E7000002F40F08F809E0E013606F01F02092AD7
:100E80004FF001014FEA866640F29E8006F0F84678
:100E9000914041EA0602002F40F0C7809B0E0133CB
:100EA00003F01F0303EB43011E39090541F00071F4
:100EB00097E01223A2E71823A0E74FF480739DE781
:100EC00006239BE7196E196EC2F31206C1F3846103
:100ED000002E3ED1C2F384628A4202BF1A6E22F013
:100EE00000421A665A6E22685E6EC2F31207C6F39B
:100EF000846600F10C018FBBC2F38467BE4240F0F0
:100F000012815A6E22F000425A6622688368836812
:100F1000C2F3120700F10806C3F3846357BBC2F3A0
:100F20008462934240F01C81336823F000433360B5
:100F3000C3682368C268C3F31200C2F3846220BB93
:100F4000C3F38463934202BF0B6823F000430B603A
:100F500072E792FAA2F2B2FA82F2BDE792FAA2F72F
:100F6000B7FA87F7BE42CCD003F168069F6E9B6E3E
:100F7000C3F3846392FAA2F2B2FA82F29A42D3D015
:100F8000C368C2682368C2F3846293FAA3F3B3FA16
:100F900083F3D7E793FAA3F2B2FA82F2013202F0B6
:100FA0001F02092A30D893FAA3F6B6FA86F601365C
:100FB000B60606F0F84693FAA3F1B1FA81F10131D1
:100FC00001F01F02012101E006F0F846914041EADC
:100FD0000602A7B9990E013101F01F0101EB410191
:100FE00009051143A268FFF775FD2268534B1A42A9
:100FF00020D10020002385F8503003B0F0BD93FAD3
:10100000A3F1B1FA81F1E6E793FAA3F2B2FA82F220
:101010000132920602F0F84693FAA3F1B1FA81F197
:10102000013101F01F02012132E793FAA3F3B3FA71
:1010300083F334E74249434B88689A4200F0E076F4
:101040000C461ED10202D4D42B683F4A934203D0EF
:1010500002F500729342CCD1A3683C4A23F0E073BE
:10106000334343F40003A360394B1B68B3FBF2F234
:101070000C2353430193019B002BBAD0019B013BEE
:10108000F8E7344B9A4211D1C301B2D42B682E4AEF
:10109000934203D002F500729342AAD1A36823F0D1
:1010A000E073334343F08073A360A2E72A4B9A4274
:1010B0009FD110F480009CD12A68234B9A4298D18A
:1010C0008B6823F0E073334343F480038B6091E734
:1010D0006A6D42F020026A6518468BE702208CE7B1
:1010E00000287FF4A9AE1846A2682168FFF7F2FC39
:1010F00026692B682268D968042E03F160003FF44A
:10110000E1AEC1F3C1035900636950F8267002F0E3
:10111000F84242F000428B401343104A3A401343D6
:1011200040F8263088E603F168069F6E9B6EC3F395
:101130008463F4E6FFFF070000007F4000000880A2
:1011400000030450000052C700000450400D03008B
:10115000E4000020000084CB0100008000F0FF03C9
:10116000C368C2682368C2F38462E9E670B50446C6
:101170000068FFF7C4FC23689A68150742D5DA684F
:10118000920123D5208B40F2011290421ED1294AB0
:1011900019684E060ED540221A6001211846FFF745
:1011A000AEFC18B1226893689D072ED501290FD196
:1011B000042518E0013AEBD1636D43F01003636539
:1011C000A36D43F00103A365012070BD0229E5D1A1
:1011D00022689368180721D4022903D00329E7D194
:1011E0000C2500E00825FFF75BFC064623689B689A
:1011F0001D4201D1002070BDFFF752FC801B052865
:10120000F4D9D9E70028BAD1F4E7936823F0004372
:1012100023F03F0343F010039360C7E793689B07F5
:10122000DAD4936823F0004323F03F0343F0200314
:101230009360D1E7010040A370B504460068FFF752
:101240005AFC08B1002070BD2268154B9168194204
:1012500009D0636D43F010036365A36D43F0010390
:10126000A365012070BD93680E4D2B4043F0010330
:101270009360FFF715FC064620680368DB07E1D49E
:10128000FFF739FC28B9226893682B4043F001032B
:101290009360FFF705FC801B0228EDD9D9E700BF5A
:1012A0003F000080C0FFFF7F354B70B504460068EB
:1012B0009E68FFF724FC054600285AD194F8503068
:1012C000012B56D0012384F850302046FFF7B4FF9D
:1012D00000284BD1636D2B4A23F4706323F0010384
:1012E00043F4807363652368934206F01F0642D07F
:1012F0001D46626D22F480126265626D12F48052A6
:101300001CBFA26D22F00602A2651C221A60AB422D
:101310004FF0000284F8502008D0092E9DBF40F203
:101320002122F240D2430122D10711D4DA6892017E
:1013300041BF626D22F4405242F4805262659A6865
:1013400022F0004222F03F0242F004029A6070BD97
:10135000636D43F480136365EB689B010FD5636D88
:1013600023F4405343F48053636570BD84F85050B8
:1013700070BD022070BD044D002EBAD0BDE770BD17
:1013800000030450000104500000045038B5044626
:101390000068836803F00203FFF7ADFB08B9002083
:1013A00038BD002BFBD12268936803F00D03012B9D
:1013B00015D1936823F0004323F03F0343F0020369
:1013C000936003231360FFF76BFB054623689B685C
:1013D000DB07E4D5FFF764FB401B0228F6D9636DF9
:1013E00043F010036365A36D43F00103A36501207F
:1013F00038BD90F85030012B10B5044616D00123AB
:1014000080F850300321FFF7B1FE58B92046FFF7AE
:10141000BDFF38B9636D23F4885323F0010343F013
:1014200001036365002384F8503010BD022010BD15
:10143000806800F0010070478068C0F3800070474A
:1014400030B590F85030012B9BB0024666D0012396
:1014500080F85030324B006898420CBF03F580731F
:1014600000230193019840B9536D82F8500043F076
:101470002003536501201BB030BDFFF7DDFF03469D
:101480001068FFF7D9FF002842D1002B40D10B682C
:10149000244C33B3A368486823F46043034392F8B1
:1014A000300043EA4033A3601D48FFF7C1FF034605
:1014B0001D48FFF7BDFF03431C48FFF7B9FF184362
:1014C00004D00020002382F85030D4E70B68A568D0
:1014D00089680B4325F4716121F00F010B43A36070
:1014E000F0E7A3680E4823F46043A360FFF7A0FF72
:1014F00003460D48FFF79CFF03430C48FFF798FF96
:101500001843DED1A36823F4716323F00F03E6E7E9
:10151000536D43F0200353650120D3E70220AAE76F
:101520000000045000030450000104500002045065
:10153000074AD36823F4E0631B041B0C43F0BF632A
:10154000000243F4003300F4E0600343D3607047CB
:1015500000ED00E0174B30B5DC68C4F30224C4F1A1
:101560000703251D042B28BF0423062D4FF001057A
:1015700005FA03F303F1FF338CBF033C0024194049
:10158000A14005FA04F4013C2240002842EA01028D
:101590004FEA0212ADBF00F1604000F00F00064BB1
:1015A00000F56140B5BFD2B2D2B21A5480F8002320
:1015B00030BD00BF00ED00E014ED00E0002808DBC6
:1015C0004209012300F01F0003FA00F0014B43F829
:1015D0002200704700E100E00138B0F1807F0AD2BC
:1015E000064B074A5860F02182F82310002007229A
:1015F00098601A6070470120704700BF10E000E05B
:1016000000ED00E0144B984217D02033984216D0DA
:101610002033984215D02033984214D0203398427A
:1016200013D02033984212D02033984211D0203367
:1016300098420CBF0720002070470020704701200F
:101640007047022070470320704704207047052030
:1016500070470620704700BF0060014038B504465F
:10166000002867D00068344DFFF7CCFF55F82030D4
:10167000002B5FD1204602F079FD304B1A68013211
:101680001A601B68012B19D12D4B1A6822F0804279
:101690001A601A68A1680A431A601A6822F47F0265
:1016A0001A602279012A05D1E1681A68013942EAF3
:1016B00001421A601A6842F000421A6020686169AB
:1016C000036823F471430360236902680B43A16933
:1016D0000B43134303600368216A23F00F03036085
:1016E000E36902680B43134303608368616AA26A7B
:1016F00023F45F0383608368013A0B4343EA0243A8
:1017000083604368226B03F007034360436843EA46
:10171000C203E26A43EA02234360036843F08003A2
:101720000360012384F83430FFF76CFF45F8204054
:10173000002038BD012038BD740100209401002034
:10174000006001402DE9F04F85B00B68DFF8A881FB
:10175000674C01930023019ADA4002D105B0BDE83D
:10176000F08F0126019A9E4012EA060E00F0B18029
:101770004A6822F01007022F16D14FEAD30900EB76
:10178000890903F0070AD9F820504FEA8A0A4FF076
:101790000F0C0CFA0AFC25EA0C0C0D6905FA0AF587
:1017A00045EA0C05C9F820504FEA430C0325D0F850
:1017B00000B005FA0CF5ED4302F0030A0BEA050B45
:1017C0000AFA0CF9013F49EA0B09012FC0F8009011
:1017D00011D8876805EA0709CF6807FA0CF747EAC6
:1017E00009078760476827EA0609C2F300179F4088
:1017F00047EA09074760BAF1030F07D1C76A27EA2A
:101800000606C2F3C0079F403E43C662C668354025
:101810008E6806FA0CF63543C560D50059D5D8F860
:10182000605045F00105C8F86050D8F8605023F0CA
:10183000030606F1804605F0010506F5803603959E
:1018400003F0030C039DB5684FEA8C0C0F2707FAD1
:101850000CF7B0F1904F25EA07073CD0254DA84280
:101860003BD005F58065A84239D005F58065A842D2
:1018700037D005F58065A84235D005F58065A842CA
:1018800033D005F58065A84214BF0725062505FA63
:101890000CF53D43B56025686FEA0E06D70354BFCB
:1018A00035404EEA050525606568970354BF35400D
:1018B0004EEA05056560A568D70254BF35404EEA7B
:1018C0000505A560E568920254BF35404EEA05055E
:1018D000E56001333FE70025D9E70125D7E7022579
:1018E000D5E70325D3E70425D1E70525CFE700BFDA
:1018F0000004014000040048001002402DE9F04FB0
:10190000404CDFF808B100234FF0010A4FF00F08F8
:1019100031FA03F201D1BDE8F08F0AFA03F511EABA
:10192000050660D023F0030707F1804707F58037ED
:1019300003F0030EBA684FEA8E0E08FA0EF9B0F102
:10194000904F02EA090C50D02F4A90424FD002F536
:10195000806290424DD002F5806290424BD002F5F9
:101960008062904249D002F58062904247D058454B
:101970000CBF0622072202FA0EF2944510D122680B
:10198000F64332402260626832406260A2683240B0
:10199000A260E2681640E660BA6822EA0902BA600C
:1019A000066803275A0007FA02F223FA07F71643DC
:1019B00000EB8707066003F00706D7F820E0B600C3
:1019C00008FA06F62EEA06063E628668D2431640FC
:1019D00086604668ED432E404660C6683240C2606D
:1019E000C26A1540C562013392E70022C3E70122B3
:1019F000C1E70222BFE70322BDE70422BBE70522BD
:101A0000B9E700BF00040140000400480018004886
:101A10000AB18161704781627047704708B5044B15
:101A20005969014202D05861FFF7F7FF08BD00BFB6
:101A30000004014003689A69910744BF00229A623A
:101A40009A69D2075EBF9A6942F001029A617047B3
:101A500030B5039C05682343640D04F4806444F0AE
:101A60007F7444F458346868C1F3090144F47F7406
:101A7000194344F0030441EA024120EA04042143EB
:101A8000696030BD2DE9F041069F04468846164640
:101A90001D462268936938EA03030CBF0123002323
:101AA000B34202D00020BDE8F0816B1CF2D0FEF7FB
:101AB000F7FFC01B854201D3002DEAD1636C43F0D0
:101AC00020036364202384F84130002384F84230EB
:101AD00084F840300120BDE8F081036870B5044609
:101AE000986910F010000D46164616D170BD691C9D
:101AF00014D0FEF7D5FF801B854200D36DB9636C0F
:101B000043F020036364202384F84130002384F8E9
:101B1000423084F84030012070BD236899698A06FC
:101B2000E5D510222025DA612046DD61FFF782FF2E
:101B30002268536823F0FF7323F48B3323F4FF737D
:101B400023F001035360636C43F00403636484F87F
:101B50004150DBE770B504460D46164623689B6985
:101B60009B0701D5002070BD324629462046FFF76D
:101B7000B4FFA0B96A1CF1D0FEF792FF801B85422A
:101B800001D3002DEAD1636C43F02003636420236A
:101B900084F84130002384F8423084F8403001203A
:101BA00070BD0000F7B5099E1F46164B0093054611
:101BB00014464FF08073FAB2FFF74AFF3246089995
:101BC0002846FFF7C7FF10B1012003B0F0BD012F79
:101BD0002B680CD1E4B29C62089B00960022802105
:101BE0002846FFF74FFF003018BF0120EDE7220A1B
:101BF0009A62089932462846FFF7ACFF0028E3D1E5
:101C00002B68E7E700200080F7B5099E1F46164BBA
:101C10000093054614460023FAB2FFF719FF324637
:101C200008992846FFF796FF10B1012003B0F0BDD8
:101C3000012F2B680CD1E4B29C62089B0096002215
:101C400040212846FFF71EFF003018BF0120EDE7B6
:101C5000220A9A62089932462846FFF77BFF00283D
:101C6000E3D12B68E7E700BF0020008070B5044691
:101C70000D46164623689B699B0601D5002070BD62
:101C8000324629462046FFF728FF90B9FEF708FFA5
:101C9000801B854201D3002DECD1636C43F02003FF
:101CA0006364202384F84130002384F8423084F8B0
:101CB0004030012070BD10B5044600284AD090F88D
:101CC000413003F0FF021BB980F8402002F080FA97
:101CD000242384F841302368E1681A6822F0010265
:101CE0001A60626822F070621A619A68012922F40F
:101CF00000429A60A26824D142F400429A605A6875
:101D0000616942F0007242F400425A60DA6822F4DB
:101D10000042DA6022690A43A16942EA0122DA60DC
:101D2000216AE2690A431A601A6842F001021A60E5
:101D300000202023606484F84130206384F842004E
:101D400010BD42F4044202299A6004BF4FF40062BD
:101D50005A60D4E7012010BD10B5044698B102685E
:101D6000242380F84130136823F00103136002F04C
:101D700065FA0020606484F8400084F84100206324
:101D800084F8420010BD012010BD2DE9F04F9B46A4
:101D900090F8413085B0202B04460F460392BDF8E1
:101DA0003CA0DDF8408040F0A5800E9B13B1BAF155
:101DB000000F06D14FF400736364012005B0BDE845
:101DC000F08F90F84030012B00F09480012580F8CE
:101DD0004050FEF765FE1923009006462A464FF450
:101DE00000412046FFF74EFE81460028E5D1212321
:101DF00084F84130402384F842300E9B6064636273
:101E00006063A4F82AA00196CDF800805B46039A8F
:101E100039462046FFF7C6FE10B184F84090CCE763
:101E2000638D9BB2FF2B55D9FF22228500904FF086
:101E3000807339462046FFF70BFE32464146204666
:101E4000FFF788FE0028B8D1636A226813F8011BE7
:101E500091626362638D228D013B9BB26385638DCA
:101E6000013A92B29BB22285ABB1A2B90096434629
:101E700080212046FFF706FE00289ED1638D9BB28D
:101E8000FF2B2FD9FF22228500904FF08073394617
:101E90002046FFF7DDFD638D9BB2002BCDD132468E
:101EA00041462046FFF7E2FE002886D12368202124
:101EB000D9615A6822F0FF7222F48B3222F4FF7249
:101EC00022F001025A6084F8411084F8400084F83E
:101ED000420073E7628D009092B222854FF000734A
:101EE000D2B2A6E7628D009092B222854FF00073C5
:101EF000D2B2CCE7022061E72DE9F04F9B4690F883
:101F0000413085B0202B04460F460392BDF83CA01B
:101F1000DDF8408040F0A9800E9B13B1BAF1000FAC
:101F200006D14FF400736364012005B0BDE8F08F63
:101F300090F84030012B00F09880012580F8405047
:101F4000FEF7AEFD1923009006462A464FF40041E5
:101F50002046FFF797FD81460028E5D1222384F82B
:101F60004130402384F842300E9B606463626063BA
:101F7000A4F82AA00196CDF800805B46039A394662
:101F80002046FFF741FE10B184F84090CCE7638D06
:101F90009BB2FF2B364B58D9FF22009322854FF07E
:101FA000807339462046FFF753FD009643460022D2
:101FB00004212046FFF766FD0028B5D12268636A38
:101FC000526A1A70636A228D01336362638D013B2A
:101FD0009BB26385638D013A92B29BB22285ABB10D
:101FE000A2B90096434680212046FFF74BFD00280A
:101FF0009AD1638D9BB2FF2B2FD9FF2222850090AF
:102000004FF0807339462046FFF722FD638D9BB267
:10201000002BCAD1324641462046FFF727FE002852
:1020200082D123682021D9615A6822F0FF7222F4FC
:102030008B3222F4FF7222F001025A6084F84110C0
:1020400084F8400084F842006FE7628D009392B2FA
:1020500022854FF00073D2B2A3E7628D009092B256
:1020600022854FF00073D2B2CCE702205DE700BFBB
:102070000024008090F84120D2B2202A10B51DD152
:1020800090F84030012B19D0242380F841300368A8
:102090001C6824F001041C601C6824F480541C603B
:1020A0001C6821431960196841F00101196000237F
:1020B00080F8412080F84030184610BD022010BD45
:1020C00010B590F84140E4B2202C1CD190F840307B
:1020D000012B18D0242380F8413003681A6822F0BD
:1020E00001021A601A6822F4706242EA0121196042
:1020F0001A6842F001021A60002380F8414080F81B
:102100004030184610BD022010BDF0B504468BB01B
:1021100060B390F8BD33056803F0FF021BB980F887
:10212000BC2302F03DF9032384F8BD33EB6B254655
:1021300013F4807355F8100B08BF236101F06BFB9B
:102140000FCD6E460FC60FCD0FC695E8030086E88B
:1021500003002546271D97E80E0055F8100B01F0E7
:1021600023FB064620B1022384F8BD33012556E047
:102170000146206801F055FB3046D4F804E01C26E7
:102180004FF0010C0146C2B2964500F101001CD887
:1021900000231C261946D8B2864503F1010322D834
:1021A0000FCD6E460FC60FCD0FC695E8030086E82B
:1021B000030097E80E00206801F074FB0123054638
:1021C00000B3022284F8BD23D0E706FB024383F864
:1021D0003DC083F83C20A3F8422083F83F105964A7
:1021E00099641965CFE706FB004282F8FD1182F879
:1021F000FC0182F8FF11C2F80412C2F80812C2F8FA
:102200001012C8E784F8380084F8BD33636A012BE4
:1022100002D1204600F006F8206801F0EBFB2846CA
:102220000BB0F0BD026803460121C0F8FC1300208A
:1022300083F8F403936943F000639361536D43F0B3
:10224000805343F00303536570470000024A13684C
:1022500043F480731360704700700040024B1868AD
:1022600000F4C060704700BF00700040174B1A6850
:10227000B0F5007F02F4C0621CD1B2F5007F15D02A
:102280001A6822F4C06242F400721A60104A11689F
:1022900032224A430F49B2FBF1F219460132586922
:1022A000400500D522B94B695B050DD4002070476D
:1022B000013AF4E7B2F5806F1FBF1A6822F4C062DA
:1022C00042F480621A60F1E703207047007000401A
:1022D000E400002040420F00024A536843F4806348
:1022E00053607047007000402DE9F041069D0446A0
:1022F0000F461646984621688A683A4214BF012262
:102300000022B24202D10020BDE8F0816B1CF3D064
:10231000FEF7C6FBA0EB0800854201D3002DEAD1F1
:10232000042384F83930E36B43F00103E3630120B5
:10233000BDE8F08137B50446FEF7B2FB0546002C38
:1023400049D094F83830012B47D0012384F8383035
:1023500094F8392002F0FF033AB984F83830204667
:1023600001F082FF41F2883323642068A16802688B
:10237000236C013922F4706242EA012202602021BA
:10238000009300222B462046FFF7AEFFF0B92268EB
:1023900065681168E36821F07F4143EA056321F035
:1023A00010010B431360A169636955680B432169F0
:1023B00043EA01430A4929400B435360136843F041
:1023C000010313600123E06384F83930002384F8AB
:1023D000383003B030BD0120FBE70220F9E700BF31
:1023E000FEF8E0FF37B51E4DAB6DDA00044618D598
:1023F000FFF734FFB0F5007F23D1802C29D9A02C22
:102400008CBF02200120174A136823F007030343FF
:102410001360136803F00703181A18BF012003B0F4
:1024200030BDAB6D43F08053AB65AB6D03F08053B3
:102430000193019BFFF712FFAB6D23F08053AB6557
:10244000D8E7802C07D808D0A4F17003584258412F
:10245000D9E70020D7E70320D5E70220D3E700BF64
:102460000010024000200240224B9A68D96812F006
:102470000C0205D00C2A15D101F00301012918D155
:1024800019681D48090755BFD3F894101968C1F39E
:102490000321C1F3031150F821004AB30C2A09D0DB
:1024A00000207047042A22D0082A144818BF0020B0
:1024B00070470020DA6802F00302022A15D00F49A3
:1024C000032A08BF0846DA68D968DB68C3F34163AA
:1024D000C1F30621C2F302120133484301325B000B
:1024E000B0FBF2F0B0FBF3F070470548EBE70448AF
:1024F000704700BF00100240C84E000800127A006A
:102500000024F4002DE9F743054608B9012047E00F
:10251000A64C0368A668E768DB0606F00C0607F021
:10252000030773D51EB10C2E52D1012F50D1236851
:10253000980702D5AB69002BE8D02368286A1907F1
:1025400056BFD4F8943023681B0903F0F00383428C
:1025500029D2FFF747FF0028D8D1236843F00803AA
:10256000236023682A6A23F0F0031343236063681F
:10257000EA6923F47F4343EA02236360FFF774FFB1
:10258000A3688B4AC3F30313D35C03F01F03D84043
:10259000884B1860884B1868FEF740FA002835D041
:1025A00003B0BDE8F083236843F008032360236889
:1025B00023F0F003034323606368EA6923F47F4355
:1025C00043EA02236360FFF70DFF0028D6D09DE7A2
:1025D000AB69002B36D0236843F001032360FEF77C
:1025E0005FFA804623689A0724D5236843F00803DE
:1025F000236023682A6A23F0F0031343236063688F
:10260000EA6923F47F4343EA022363602B68D80717
:1026100029D42B68990767D42B68180700F19C8090
:102620002B68590700F1CA80A86A002840F033815E
:102630000020B5E7FEF734FAA0EB08000228D1D954
:102640000320ADE7236823F001032360FEF728FA97
:10265000804623689B07D9D5FEF722FAA0EB080035
:102660000228F6D9ECE7082E03D00C2E08D1032F50
:1026700006D123689A03CCD56B68002BC9D145E7F6
:102680006B68B3F5803F10D1236843F48033236037
:10269000FEF706FA804623689B03BAD4FEF700FAD9
:1026A000A0EB08006428F6D9CAE7B3F5A02F04D13F
:1026B000236843F480232360E6E7226822F4803213
:1026C0002260226822F480222260002BE0D1FEF7F3
:1026D000E7F98046236898039BD5FEF7E1F9A0EB64
:1026E00008006428F6D9ABE7042E03D00C2E10D1D5
:1026F000022F0ED12368590503D5EB68002B3FF458
:1027000005AF63682A6923F0F85343EA0263636004
:1027100082E7EB687BB1236843F480732360FEF7A4
:10272000BFF9074623685A05EBD4FEF7B9F9C01B79
:102730000228F7D984E7236823F480732360FEF727
:10274000AFF9074623685B057FF566AFFEF7A8F98A
:10275000C01B0228F6D973E76B699BB1D4F894309B
:1027600043F00103C4F89430FEF79AF90746D4F811
:1027700094309A073FF554AFFEF792F9C01B022838
:10278000F5D95DE7D4F8943023F00103C4F8943010
:10279000FEF786F90746D4F894309B077FF540AFE3
:1027A000FEF77EF9C01B0228F5D949E70010024068
:1027B000AD4E0008E40000202C000020A36DD800DE
:1027C00029D4A36D43F08053A365A36D03F0805318
:1027D0000193019B4FF00108794F3B68D9051DD546
:1027E000AB68012B2BD1D4F8903043F00103C4F82F
:1027F0009030FEF755F941F288390746D4F8903009
:102800009B0742D5B8F1000F3FF40EAFA36D23F044
:102810008053A36508E74FF00008DDE73B6843F409
:1028200080733B60FEF73CF981463B68DA05D7D4FC
:10283000FEF736F9A0EB09000228F6D900E7052BD0
:1028400006D1D4F8903043F00403C4F89030CAE7BE
:10285000D4F8902022F00102C4F89020D4F89020FF
:1028600022F00402C4F89020002BC2D1FEF718F920
:1028700041F288390746D4F890309807C2D5FEF760
:102880000FF9C01B4845F6D9DAE6FEF709F9C01B77
:102890004845B3D9D4E60C2E5CD02368022823F037
:1028A000807323603BD1FEF7FBF80646236899014D
:1028B0002FD4E268434B1340EA6A13436A6B43EA3E
:1028C00002232A6B013A43EA0213AA6B120943EA74
:1028D0004243EA6B5208013A43EA42532A6C5208D7
:1028E000013A43EA4263E360236843F08073236064
:1028F000E36843F08073E360FEF7D2F8054623688F
:102900009A013FF595AEFEF7CBF8401B0228F6D9A9
:1029100096E6FEF7C5F8801B0228C7D990E6236823
:1029200013F0205F02BFE36823F00303E360E36872
:1029300023F0887323F48033E360FEF7B1F8054693
:1029400023689B017FF574AEFEF7AAF8401B0228AE
:10295000F6D975E601283FF423AEE368EA6A03F08E
:10296000030191427FF4D2AD296B03F0700201396B
:10297000B2EB011F7FF4CAAD696B03F4FE42B2EB08
:10298000012F7FF4C3ADAA6B073A03F4003118BFDF
:10299000012291427FF4BAADEA6B520803F4C00100
:1029A000013AB1EB425F7FF4B1AD2A6C5208013AB3
:1029B00003F0C063B3EB426F14BF01200020EFE5CA
:1029C000007000408C809DF92DE9F0410E460446D0
:1029D00010B90120BDE8F081414A136803F00703F4
:1029E0008B422AD32368D90732D421688A075CD462
:1029F0003B4A136803F007039E425ED311F0040FB5
:102A0000384D65D10B0706D5AB68226923F46053B6
:102A100043EAC203AB60FFF727FDAB68324AC3F35A
:102A20000313BDE8F041D35C03F01F03D8402F4BE4
:102A300018602F4B1868FDF7F1BF136823F00703E8
:102A40000B431360136803F007039942C1D1C9E730
:102A50006268244D032A2B681BD113F0007FB8D085
:102A6000AB6823F003031343AB60FEF719F841F2A0
:102A700088380746AB68626803F00C03B3EB820F3B
:102A8000B3D0FEF70DF8C01B4045F3D90320BDE8D5
:102A9000F081022A02D113F4003FE0E712B913F0EB
:102AA000020FDCE713F4806FD9E70E4AA068936841
:102AB00023F0F003034393609AE7136823F00703BE
:102AC00033431360136803F007039E4281D195E7F7
:102AD000AB68E26823F4E0631343AB6092E700BFA6
:102AE0000020024000100240AD4E0008E40000202B
:102AF0002C000020054B064A9B68C3F30223D35CDD
:102B0000044A106803F01F03D840704700100240C9
:102B1000BD4E0008E4000020054B064A9B68C3F345
:102B2000C223D35C044A106803F01F03D8407047E7
:102B300000100240BD4E0008E4000020F8B5454BEF
:102B4000DA6812F0030F05460E461C4600682AD0CC
:102B5000DA6802F0030282423CD1002A3AD0DB68F4
:102B60006A68C3F302130133934233D1236823F01D
:102B700080632360FDF794FF074623681A0132D46F
:102B8000AF68002E36D0012E50D12269286922F478
:102B9000C002400822F4FE42013842EA072242EA1B
:102BA0004052226132E0022810D0032814D00128BC
:102BB00010D11B689F0738D5E3686A6823F0730358
:102BC000013A184340EA0210E060CFE71B6813F4B3
:102BD000806FF1D10120F8BD1A689103ECD41B6815
:102BE00013F4802FF5E7FDF75BFFC01B0228C4D963
:102BF0000320F8BD2169EB6821F41F3121F44071F5
:102C000041EA07211B0941EA43412161236843F05E
:102C100080632360FDF744FF064623681B0113D53C
:102C20002369AA69134323610020F8BD23696869F9
:102C300023F0C063400823F4FE43013843EA07232E
:102C400043EA40632361E1E7FDF72AFF801B022886
:102C5000E3D9CDE700100240F8B53D4BDA6812F039
:102C6000030F05460E461C46006828D0DA6802F0BD
:102C7000030282423AD1002A38D0DB686A68C3F383
:102C800002130133934231D1236823F08053236030
:102C9000FDF706FF074623689A0030D4A868002E87
:102CA00034D06369296923F0C063490823F4FE43E3
:102CB000013943EA002343EA4163636132E00228B9
:102CC00010D0032814D0012810D11B689F0738D5D5
:102CD000E3686A6823F07303013A184340EA02107C
:102CE000E060D1E71B6813F4806FF1D10120F8BDDB
:102CF0001A689103ECD41B6813F4802FF5E7FDF7F5
:102D0000CFFEC01B0228C6D90320F8BD6269EB685C
:102D100022F41F3222F4407242EA00221B0942EAE6
:102D200043426261236843F080532360FDF7B8FE9D
:102D3000064623689B0005D563696A69134363618E
:102D40000020F8BDFDF7ACFE801B0228F1D9DBE7BF
:102D5000001002402DE9F347066816F400660446A9
:102D600024D0416EB1F5800F2CD002D8C1B101261C
:102D70001CE0B1F5000F0DD0B1F5400FF7D14D4A71
:102D8000616ED2F8883023F440030B43C2F88830D8
:102D900000260BE0474AD36843F48033D360EEE764
:102DA0000430FFF7CBFE06460028E8D02368D8049D
:102DB00006D5A16EB1F1807F74D008D8A9B10126E3
:102DC000354621E000212030FFF746FFEBE7B1F167
:102DD000007F04D0B1F1407FF1D1354609E0354A9A
:102DE000D36843F48033D360F7E7201DFFF7A6FED6
:102DF0000546002D5CD12F4AA16ED2F8883023F011
:102E000040730B43C2F888302368990340F14F8127
:102E1000284FBB6DDA0040F176814FF00008DFF8F3
:102E20009890D9F8003043F48073C9F80030FDF76A
:102E300037FE8246D9F80030DB053FD5002D44D15E
:102E4000D7F8903013F4407315D0D4F8842093420F
:102E500011D0D7F89030D7F8902042F48032C7F8DC
:102E60009020D7F8902023F4407322F48032C7F8E2
:102E70009020C7F89030D80709D5FDF711FE41F230
:102E800088390546D7F89030990740F10981D7F87D
:102E90009030D4F8842023F440731343C7F8903063
:102EA000354612E0002104F12000FFF7D5FE9FE730
:102EB0002E46A9E70010024000700040FDF7F0FD2B
:102EC000A0EB0A000228B5D90325B8F1000F03D002
:102ED000BB6D23F08053BB652368DA0708D59049A2
:102EE000A06BD1F8882022F003020243C1F88820A9
:102EF0009F0708D58A49E06BD1F8882022F00C02A0
:102F00000243C1F888205E0708D58549206CD1F8B6
:102F1000882022F030020243C1F88820180708D523
:102F20007F49606CD1F8882022F0C0020243C1F8CA
:102F30008820D90608D57A49A06CD1F8882022F4D7
:102F400040720243C1F888209A0608D57449E06CA3
:102F5000D1F8882022F440620243C1F888209F05FE
:102F600008D56F49E06DD1F8882022F44022024351
:102F7000C1F888205E0508D56949206ED1F88820FF
:102F800022F440120243C1F88820580608D564494B
:102F9000206DD1F8882022F440520243C1F88820E5
:102FA000190608D55E49606DD1F8882022F44042A8
:102FB0000243C1F88820DA0508D55949A06DD1F837
:102FC000882022F440320243C1F888209B040FD5A8
:102FD000534AE16ED2F8883023F040630B43B1F1DD
:102FE000006FC2F8883064D1D36843F48013D36093
:102FF00023681F030FD54A4A216FD2F8883023F087
:1030000040630B43B1F1006FC2F888305CD1D368E4
:1030100043F48013D36023685E030FD5404A616F89
:10302000D2F8883023F040630B43B1F1006FC2F84F
:10303000883054D1D36843F48013D3602368580494
:1030400012D53749A26FD1F8883023F0405313438B
:10305000B2F1805FC1F888304CD10221201DFFF70A
:103060006DFD002818BF05462268110408D52C49BB
:10307000E06FD1F8883023F080430343C1F88830F3
:10308000D30309D5264AD4F88010D2F8883023F02B
:1030900000430B43C2F88830284602B0BDE8F087F1
:1030A000FDF7FEFC401B48457FF6ECAE0CE73546CD
:1030B00012E7B1F1806F9BD10121201DFFF73EFD8A
:1030C000002818BF054693E7B1F1806FA3D1012115
:1030D000201DFFF733FD002818BF05469BE7B1F11F
:1030E000806FABD10121201DFFF728FD002818BFFC
:1030F0000546A3E7B2F1005FB6D1022104F120003A
:10310000FFF7AAFDADE7BB6D43F08053BB65BB6D18
:1031100003F080530193019B4FF001087FE600BF4D
:1031200000100240024A136843F004031360704722
:103130000010024070B5044600284AD00023836284
:1031400090F85D3003F0FF021BB980F85C2001F0BD
:10315000C1F80223216884F85D300B68E26823F02F
:103160004003B2F5E06F0B604FF000032ED9184614
:10317000B2F5706F18BFA362236B2BB9B2F5E06F85
:103180008CBF022301232363A6686368A5693343C8
:103190002669334366693343E6693343266A33431A
:1031A000A66A334305F4007633430B60636A1A431F
:1031B000636B2D0C1A4305F004052A4302430123D7
:1031C00000204A60206684F85D3070BD4FF4805066
:1031D000D0E7012070BD00000268C169F8B504465F
:1031E000836800691568034360690343BA480B4369
:1031F0002840034313605368E06823F440530343BB
:103200005360B64BA0699A421CBF236A1843936867
:1032100023F4306303439360B14B9A4219D103F511
:103220005843B04AD3F8883003F00303B1F5004F98
:10323000D35C40F03881082B00F28F80DFE813F078
:103240001A01CA00F9008D0014018D008D008D0057
:103250003600A54B9A4207D103F5E633A34AD3F8CB
:10326000883003F00C03E1E7A14B9A4223D103F528
:10327000E433D3F8883003F03003102B00F0F180F2
:103280000BD8002B00F0F380B1F5004F4FF0010296
:103290004FF0000300F0F880A8E0202B00F0C6807B
:1032A000302BF1D1B1F5004F40F0B8806068430891
:1032B00003F58033C3E08F4B9A421ED103F5E2330E
:1032C000D3F8883003F0C003402B00F0BB800AD84D
:1032D0007BB9824B9A4240F0CA80FFF70BFC002377
:1032E000B0BB02463AE0802B00F09D80C02B00F07E
:1032F000B0807A4B9A42C7D12FE07F4B9A4211D1CE
:1033000003F5E033D3F8883003F44073B3F5807FDE
:1033100000F09880DCD9B3F5007F00F08480B3F52D
:10332000407FE4E76D4B9A42AED103F5C833D3F842
:10333000883003F44063B3F5806F00F08380C7D911
:10334000B3F5006F6FD0B3F5406FD0E76B48022341
:10335000626802EB4201814205D901220023236603
:1033600063661046F8BDB0EB023FF6D8082B2ED8A6
:10337000DFE803F0052D1C2D242D2D2D2700FFF750
:10338000B9FB62684FF4807156080027E1FB0067C3
:10339000002330463946FCF76BFF0022584BA0F55E
:1033A00040719942D9D82368D860D7E75548550865
:1033B00000230021401941F10001ECE7FFF754F828
:1033C000DFE750080021002310F50000F3E7012299
:1033D0000020E3E7FFF7A0FB4EE0FFF78BFB6268FE
:1033E00000EB5203B3FBF2F39BB20022A3F11000F7
:1033F0004FF6EF718842B0D82168CB60AEE7FFF797
:103400008BFBECE76068430803F5740303F5105386
:10341000B3FBF0F3E8E7FFF727F8E0E7606843085D
:1034200003F50043F4E72D4B9A428FD0B1F5004FDE
:10343000E8D16068430803F1F47303F59043B3FBEC
:10344000F0F31FE0254B9A420BD1FFF70DF8042350
:1034500046E7224B9A427FF425AF4FF40040082301
:1034600076E7B1F5004FD6D1FEF7FEFF04E0B1F5E7
:10347000004FB2D1FFF73EFB61684A0802EB400300
:10348000B3FBF1F39BB20022A3F110004FF6EF71F2
:1034900088423FF662AF23F00F012068C3F3420376
:1034A0000B43C3605AE7082B3FF657AF01A252F80F
:1034B00023F000BFDB330008FF33000805340008A9
:1034C0005B330008173400085B3300085B330008E7
:1034D0005B3300081D340008F369FFEF00800040F3
:1034E000003801404C4E000800440040504E000897
:1034F00000480040004C0040005000400024F40010
:10350000FFFC0F00000024F4436ADA0710B506D56B
:103510000168846A4A6822F4003222434A609C07A8
:1035200006D50168C46A4A6822F4803222434A60A0
:10353000590706D50168046B4A6822F480222243A9
:103540004A601A0706D50168446B4A6822F40042B3
:1035500022434A60DC0606D50168846B8A6822F43F
:10356000805222438A60990606D50168C46B8A6836
:1035700022F4005222438A605A060FD50168046C77
:103580004A6822F480122243B4F5801F4A6005D1B4
:103590004A68446C22F4C00222434A601B0606D5E6
:1035A0000268816C536823F400230B43536010BD01
:1035B0002DE9F041069D04460F46164698462168BF
:1035C000CA6937EA02030CBF01220022B24202D0CC
:1035D0000020BDE8F0816B1CF2D0FDF761FAA0EB92
:1035E0000800854201D3002DE9D123681A6822F42E
:1035F000D0721A609A6822F001029A6020236367F1
:10360000A367002384F870300320BDE8F0812DE922
:10361000F7439846436F202B04460E4691464BD104
:10362000002947D0002A45D090F87030012B43D0B4
:10363000012380F8703000252123C5674367FDF71B
:103640002FFAA368A4F85090B3F5805F0746A4F85A
:10365000529003D123690BB935461E46B4F8522067
:10366000CDF8008092B23B464AB940212046FFF790
:103670009FFF50B92023636784F8700006E00022A2
:1036800080212046FFF794FF18B1032003B0BDE866
:10369000F08322685EB935F8023BC3F30803138553
:1036A000B4F85230013B9BB2A4F85230D6E716F87A
:1036B000013BF4E70120E9E70220E7E773B50446A0
:1036C0000026C667FDF7ECF923681B681A07054654
:1036D00015D423681B685B070AD56FF07E430093FF
:1036E00000222B464FF480012046FFF761FF90B97E
:1036F00020230020636784F87000A3670CE06FF05C
:103700007E430093324603464FF400112046FFF7F4
:103710004FFF0028DDD0032002B070BD10B5044675
:1037200040B3436F1BB980F8703000F007FE226889
:1037300024236367136823F0010313602046FFF717
:103740004BFD012816D0636A13B12046FFF7DCFE5B
:1037500023685A6822F490425A609A6822F02A023A
:103760009A601A6842F0010220461A60BDE81040D3
:10377000FFF7A4BF012010BD0A4B013B01D103207C
:1037800070470269002AF8DA0369064A43F0010328
:103790000361013AF3D0036913F00103F9D118462C
:1037A000704700BF410D030084B038B505AD85E812
:1037B0000E000A9B012B044619D1836B23F480333E
:1037C0008363C36823F4840323F04003C360C368A6
:1037D00023F44013C360119B012B02BFC36843F461
:1037E0008013C360BDE8384004B0FFF7C5BFC368AD
:1037F00043F04003C360FFF7BFFF0E9B3BB9A36BD1
:1038000043F48033A363BDE8384004B07047A36B32
:1038100023F48033F6E7836823F0010383600020FC
:10382000704708B5C368012923F0C043C36008D1BD
:10383000C36843F00053C3603220FDF737F900201E
:1038400008BD19B9C36843F08043F4E7012008BDFF
:10385000890141F02001064A0161013A05D003695E
:1038600013F02003F9D1184670470320704700BFBA
:10387000410D03001023064A0361013A05D0036994
:1038800013F01003F9D1184670470320704700BFAA
:10389000410D0300D0F800381943C0F8001800208B
:1038A0007047000084B02DE9F843044609A880E879
:1038B0000E000023139E0F46194603F1400204EB4D
:1038C000820201330F2B5160F7D1A36B002E62D11E
:1038D00023F40013A363236843F0400323602368A9
:1038E00043F0800323600023C4F8003ED4F800387E
:1038F000C4F8003803212046FFF7CCFF10212046F2
:10390000FFF7A6FF0146204604F50065FFF7B2FF6A
:10391000002844D1081C18BF012000232B6104F5A6
:1039200010626B611946EB614FF0904E4FF0006CE6
:103930004FF67F38BB4234D1002104F530620F4688
:103940004FF0904E4FF0006C4FF67F388B423BD1DA
:103950002B6923F480732B610023A3616FF08043F4
:103960006361A36943F01003A361A269204B134371
:10397000A3610F9B1BB1A36943F00803A361012E50
:1039800001BFA36943F0804343F00403A361BDE892
:10399000F84304B0704743F40013A363A3E7012086
:1039A000BBE7D2F80090B9F1000F0BDA3BB9C2F8CF
:1039B00000C011610133C2F808802032BAE7C2F8B2
:1039C00000E0F6E71160F4E7D2F80090B9F1000FDB
:1039D0000BDA39B9C2F800C017610131C2F80880AA
:1039E0002032B3E7C2F800E0F6E71760F4E700BF63
:1039F00000383C8008B5D0F8043843F00203C0F822
:103A000004380320FDF752F8002008BDF0B5B9B026
:103A100014244422002105A800F0D6FD22460021EE
:103A2000684600F0D1FD0021882216A800F0CCFDE8
:103A3000FEF70CFC234AD2F8903023F01803C2F8AA
:103A4000903060230125022605940D93002428233D
:103A5000072705A8129307950B950C940F961095C0
:103A60001195139714961596FEF74CFD0F2204211D
:103A7000032368468DE80C00029403940494FEF737
:103A8000A3FF114B16934FF0805334934FF0806394
:103A900031931823199316A84FF088731D9324941B
:103AA0002B943694179518951A971B961C96FFF72A
:103AB00051F94FF40070FEF7D9FBFFF733FB39B033
:103AC000F0BD00BF00100240816001002DE9F04F01
:103AD0002DED048B93B0FCF7C7FFFFF797FF14227F
:103AE00000210CA800F070FDB24BB348DA6CDFF88F
:103AF000F08242F01002DA64DA6C02F010020492F2
:103B0000049ADA6C42F00402DA64DA6C02F004021D
:103B10000592059ADA6C42F00102DA64DA6C02F07E
:103B200001020692069ADA6C42F00202DA64DA6C5A
:103B300002F002020792079ADA6C42F00802DA6495
:103B4000DB6C03F00803089300224FF48A71089B92
:103B5000FDF75EFF002248F204114FF09040FDF7A0
:103B600057FF00224FF214019448FDF751FF002245
:103B700041F281019248FDF74BFF01224FF40051C1
:103B80008F48FDF745FF00224FF410718D48FDF777
:103B90003FFF012220218948FDF73AFF012211460B
:103BA00085480024FDF734FF012640F215130CA9C7
:103BB00081480C930D960E940F94FDF7C3FD6A2374
:103BC0000CA97D480C93CDF834800E94FDF7BAFD16
:103BD0004FF400530C930CA97B4B7A480D930227AA
:103BE00003254FF008090E94FDF7ACFD0CA94FF02A
:103BF00090400C950D970F950E94CDF84090FDF7E1
:103C0000A1FD48F204130CA94FF090400C930D96BF
:103C10000E940F94FDF796FD0CA94FF090400D9770
:103C20001096CDF830900E940F94FDF78BFDE023A5
:103C30000C930CA905234FF09040109303930D971C
:103C40000F950E94FDF77EFD0CA95C480C96CDF8FF
:103C500034800E94FDF776FD4FF234020CA95748DC
:103C60000C924FF4407B4FF0070A0D960E940F9480
:103C7000FDF768FD0CA952480D970F95CDF830B0AF
:103C80000E94CDF840A0FDF75DFD4CF604420CA962
:103C90004B480C92CDF834800E94FDF753FD43F25F
:103CA00081020CA946480C920D960E940F94FDF7D4
:103CB00049FD4FF410720CA942480C920D960E94D7
:103CC0000F94FDF73FFD4FF4C0720CA93D480C92D4
:103CD000CDF834800E94FDF735FD039B38480C97E2
:103CE0000CA90D970F9510930E94FDF72BFD7823DB
:103CF0000CA933480C934FF004080D970F950E94C0
:103D0000CDF840A0FDF71EFD12230CA92B480D9302
:103D10000E960F95CDF84080CDF830B0FDF712FD2E
:103D2000224621461720FDF715FC1720FDF746FC1B
:103D3000224621462820FDF70DFC2820234DFDF7C3
:103D40003DFC182221460CA809940A940B9400F01B
:103D50003BFC1F4BC5F81480284685E81800EE612F
:103D6000AC60EC602C612C766C7685F82040AC62FF
:103D7000EC6285F830406C6385F83840FCF7C4FE8F
:103D800009A928460994FDF75BFB124B0C930CA97B
:103D900006237F2228460D9303930F92CDF840808F
:103DA0000E941194FDF70CF80B480C4A0260C0F811
:103DB000208017E000100240001000480004004876
:103DC000000C0048000800480000211008090020ED
:103DD000000004500200300418040020206001405C
:103DE000000011104FF48072DFF898820671C760EE
:103DF00082618662846004614461C4614462C46219
:103E00000463FDF72BFC874B874AC8F80C604046DB
:103E100088E80C00C8F80840C8F81040C8F81440FA
:103E2000C8F81840C8F81C40C8F82040FDF743FF08
:103E300021464046FEF71EF921464046FEF740F96E
:103E40007A487B498660FF2280E806000661C460EC
:103E500044618461FEF76EFA7648774A84604FF4D5
:103E6000827680E844004FF40072744E8261C0F89C
:103E70000CB004614461C461046244628462C0F8AD
:103E80002CA00463C0F83490FFF754F96C4AB46076
:103E90004FF4E13E86E8044030460C227261F46043
:103EA0003461B461F46134627462FFF737FC6548D1
:103EB000039B43604FF0A0420260C7608761C4610A
:103EC0000462446284620463C462FEF71EF94FF424
:103ED0007A7342225C495D4F3046FFF798FB4FF4FE
:103EE0007A7341225A493046FFF791FBFCF732FCC6
:103EF000FCF7F8FBFCF712FC4FF47A7331225549BA
:103F00003046FFF784FB4FF47A732E225149304636
:103F1000FFF77DFB4FF47A732E224E493046FFF7B0
:103F200076FBFCF729FC4C4CDFF85C8184ED000A41
:103F3000FCF7ECFB88ED000AFCF704FC474B94ED22
:103F4000008A83ED000A2846B0EE409AD8ED008A38
:103F5000434CFDF7A9F94FF47A712846FCF7B4FEFB
:103F60002846FCF729FFFDEEC89A20602846FDF799
:103F700040FAF8EEE97A19EE903A38EE678ADFED0A
:103F8000397A394A28EE278A6421BDEEC88A384634
:103F90008DED008A00F020FBFDEEE88A39464FF4F3
:103FA0007A7364223046FFF732FB4FF4FA70FCF765
:103FB0007DFD18EE903A2D4A2D48642100F00CFB4F
:103FC0004FF47A7364222A493046FFF720FB4FF4FE
:103FD000FA70FCF76BFDFDEEC97A264A264817EE0B
:103FE000903A642100F0F8FA4FF47A73642222497F
:103FF0003046FFF70CFB4FF4FA70FCF757FD2368CF
:104000001E4A1F48642100F0E7FA4FF47A736422D5
:104010001B493046FFF7FBFA4FF4FA70FCF746FDF8
:104020007FE700BFEC9C901000580040EC09002096
:10403000001000A0A4080020003C00406C090020F3
:10404000003801405004002030000020D002002041
:1040500072000020B300002034030020A0010020E3
:10406000980100200000C8425D4E0008764E00080E
:1040700008020020874E00086C020020984E0008BD
:10408000A4010020580800209C0100200A4B1A6E51
:1040900042F001021A661A6E82B002F0010200922A
:1040A000009A9A6D42F080529A659B6D03F080539E
:1040B0000193019B02B070470010024030B51422FA
:1040C0008BB0044600210DEB020000F07DFA22685F
:1040D000234B9A4241D103F17043A3F5F8330B24EB
:1040E000DA6C204842F40052DA64DA6C02F40052CE
:1040F0000192019ADA6C42F00402DA64DA6C02F09E
:1041000004020292029ADA6C42F00102DA64DA6C7A
:1041100002F001020392039ADA6C42F00202DA64BE
:10412000DB6C069403F002030493049B05A93F2370
:1041300005930025FDF706FB102305A94FF09040DD
:10414000059306940795FDF7FDFA022305A9064895
:10415000059306940795FDF7F5FA0BB030BD00BF47
:1041600000000450000800480004004800B589B071
:104170001422002103A800F027FA134B1B6803BB8D
:1041800003F1804303F5043303A91A6E0F4842F08C
:1041900080721A661A6E02F080720192019ADA6CCD
:1041A00042F01002DA64DB6C03F010030293029B0E
:1041B0004FF4207303930223049306230793FDF720
:1041C000C1FA09B05DF804FB380300200010004874
:1041D00010B5044688B01422002103A800F0F4F9B9
:1041E0002268134B9A4221D1124C1348E36C43F0DE
:1041F0000203E364E36C03F002030193019B4FF4B9
:10420000406303931223049301230593032306932E
:1042100003A904230793FDF795FAA36D43F48003E4
:10422000A365A36D03F480030293029B08B010BD45
:104230000058004000100240000400480268074B8C
:104240009A4209D1064A0748936D23F48003936587
:104250004FF44061FDF752BB704700BF005800406B
:10426000001002400004004810B5044688B0142233
:10427000002103A800F0A8F92268144B9A4222D129
:1042800003F1204303F5003303A91A6D104842F4EB
:1042900080721A651A6D02F480720192019ADA6CCA
:1042A00042F01002DA64DB6C03F010030293029B0D
:1042B0004FF47C43039302230493032306930A23BE
:1042C0000793FDF73FFA08B010BD00BF001000A033
:1042D0000010004810B5044688B01422002103A83D
:1042E00000F072F92268134B9A4220D103F5EA33A9
:1042F00003A99A6D104842F400429A659A6D02F43F
:1043000000420192019ADA6C42F00402DA64DB6C3A
:1043100003F004030293029B4FF4E0530393022340
:1043200004930323069306230793FDF70BFA08B0C3
:1043300010BD00BF003C00400008004810B5044616
:1043400088B01422002103A800F03EF92268124B25
:104350009A421FD103F5584303A91A6E0F4842F43D
:1043600080421A661A6E02F480420192019ADA6C57
:1043700042F00202DA64DB6C03F002030293029B58
:10438000C023039302230493032306930723079375
:10439000FDF7D8F908B010BD00380140000400480E
:1043A00010B5044688B01422002103A800F00CF9CF
:1043B0002368B3F1A04F3CD1204CE36C43F00103E0
:1043C000E364E36C03F001030093009B03A94FF443
:1043D00000734FF090400393FDF7B4F94FF4E053AE
:1043E000039302230493002305930323069303A955
:1043F0000A234FF090400793FDF7A4F9E36C43F4D0
:104400008053E364E36C03F480530193019BA36D39
:10441000DB0010D4A36D43F08053A365A36D03F0BC
:1044200080530293029BFDF757FFA36D23F0805347
:10443000A36508B010BDFDF74FFFFAE7001002407A
:104440007047FEE7FEE7FEE7FEE7704770477047FC
:10445000FCF71ABB08B52020FDF7E0FA4020FDF775
:10446000DDFA8020FDF7DAFA4FF48070BDE80840ED
:10447000FDF7D4BA08B54FF48060FDF7CFFA4FF4DA
:104480000060FDF7CBFA4FF40050FDF7C7FA4FF488
:104490008040FDF7C3FA4FF40040BDE80840FDF747
:1044A000BDBA000008B50A4B1968024609B90949A6
:1044B00019601868694602448A4206D900F05AF821
:1044C0000C2303604FF0FF3008BD1A6008BD00BF29
:1044D0003C030020340A00200F49D1F8883043F40F
:1044E0007003C1F888300D4B1A68002042F00102B9
:1044F0001A6098601A6822F0A85222F410221A60FA
:104500004FF48052DA601A6822F480221A609861AF
:104510004FF000638B60704700ED00E00010024038
:10452000DFF834D0002103E00C4B5B5843500431DA
:104530000B480C4B42189A42F6D30B4A02E0002378
:1045400042F8043B094B9A42F9D3FFF7C5FF00F04C
:1045500017F8FFF7BBFAFEE7008001203C4F000888
:10456000000000204C0100204C010020340A0020F3
:10457000FEE70000014B1868704700BFE80000200C
:1045800070B50D4E0D4CA41BA4100025A54209D1F9
:104590000B4E0C4C00F04EFCA41BA4100025A542B1
:1045A00005D170BD56F8253098470135EEE756F82D
:1045B000253098470135F2E7344F0008344F0008A2
:1045C000344F0008384F000802440346934200D19C
:1045D000704703F8011BF9E70CB430B5174B0C1EFC
:1045E0009DB01D6808DA8B232B604FF0FF301DB0A3
:1045F000BDE8304002B070474FF40273ADF814309C
:1046000014BF04F1FF332346049307934FF6FF735F
:1046100002900690ADF81630209A21AB02A92846E8
:10462000019300F069F8431CBCBF8B232B60002C66
:10463000DDD0029B00221A70D9E700BFE8000020FD
:104640002DE9F0478E689E4282460C469146984678
:1046500035D88A8912F4906F31D0256809696F1AAC
:104660006569022305EB450595FBF3F508F10103A8
:104670003B449D4238BF1D46530531D5294600F0C5
:1046800039FB064650B90C23CAF80030A38943F021
:104690004003A3814FF0FF30BDE8F0873A4621691F
:1046A00000F0B4FAA38923F4906343F08003A3815C
:1046B000266165613E44ED1B2660A5604646464581
:1046C00028BF464632464946206800F0AAFAA36849
:1046D0009B1BA36023681E4426600020BDE8F08772
:1046E0002A4600F065FB06460028E1D121695046C4
:1046F00000F0B2FAC7E700002DE9F04F9DB0804608
:1047000003938B891C060D4616460FD50B696BB9B2
:10471000402100F0EFFA2860286128B90C23C8F87E
:1047200000304FF0FF30C5E040236B610023099358
:1047300020238DF8293030238DF82A304FF0010BDB
:1047400037463C4614F8013B002B3CD1B7EB060A38
:104750000BD05346324629464046FFF771FF0130E1
:1047600000F0A380099B534409933B78002B00F091
:104770009C8000234FF0FF32049307930592069329
:104780008DF853301A93052221785048FBF720FD0D
:10479000671C049BD8B9D90644BF20228DF853204A
:1047A0001A0744BF2B228DF8532022782A2A16D0CC
:1047B000079A00210A20274601343B78303B092B19
:1047C00051D9C9B111E0252BC0D02746B9E73F4ADE
:1047D000801A0BFA00F0184304903C46D3E7039A82
:1047E000111D12680391002A01DB079204E0524276
:1047F00043F00203079204933B782E2B0ED17B7873
:104800002A2B07F1010132D1039B1A1D1B68039269
:10481000002BB8BF4FF0FF33023705932C4C39788B
:1048200003222046FBF7D4FC38B14023001B03FAD7
:1048300000F0049B034304930137397825488DF831
:10484000281006227E1CFBF7C3FC002835D0224B23
:10485000FBB9039B073323F0070308330393099B3A
:104860004B4409936CE700FB02320121A3E70023CC
:10487000059318460A240F4601313A78303A092A3E
:1048800003D9002BCAD00590C8E704FB0020012300
:10489000F1E703AB00932A46104B04A94046AFF35F
:1048A0000080B0F1FF3F8146D9D1AB895B063FF56F
:1048B00038AF09981DB0BDE8F08F03AB00932A46CE
:1048C000064B04A9404600F081F8EAE7F84E0008DC
:1048D000FE4E0008024F000800000000414600089C
:1048E0002DE9F04791461F468A680B69DDF8208064
:1048F0009342B8BF1346C9F8003091F843200646EA
:104900000C4612B10133C9F800302368990642BF42
:10491000D9F800300233C9F80030256815F00605D3
:1049200007D104F1190AE368D9F800209B1A9D42C7
:1049300029DB94F843302268003318BF0123920624
:104940002ED404F1430239463046C047013021D00D
:104950002368E568D9F8002003F00603042B08BF9C
:10496000AD1AA36822690CBF25EAE57500259342BC
:10497000C4BF9B1AED184FF000091A344D451BD1E6
:104980000020BDE8F0870123524639463046C04733
:10499000013003D14FF0FF30BDE8F0870135C2E7A9
:1049A000E1185A1C302081F84300224494F8451045
:1049B00082F843100233C4E70123224639463046C9
:1049C000C0470130E6D009F10109D7E72DE9F043EE
:1049D00017460A7E85B06E2A984606460C460C9B02
:1049E00001F1430E00F0BC801AD8632A2ED00AD8F9
:1049F000002A00F0C880582A00F08A8004F142059D
:104A000084F842202AE0642A01D0692AF6D121687C
:104A10001A6811F0800F23D0111D1960136827E068
:104A2000732A00F0B48008D86F2A2AD0702AE5D102
:104A30000A6842F020020A6003E0752A21D0782A31
:104A4000DCD1782284F845206E4964E01A6801F1CF
:104A50004205111D1960136884F842300123A3E058
:104A600011F0400F02F104011960D7D0B2F9003003
:104A7000002B03DA2D225B4284F8432062490A228C
:104A800017E02068196810F0800F03D0081D186027
:104A90000B6806E010F0400F01F104001860F7D039
:104AA0000B8859496F2A14BF0A220822002084F873
:104AB00043006568A560002DC0F29C80206820F04E
:104AC00004002060002B3FD1002D40F095807546FA
:104AD000082A0BD12368DA0708D5236962689A424D
:104AE000DEBF302305F8013C05F1FF35AEEB0503D1
:104AF0002361CDF800803B4603AA21463046FFF7EC
:104B0000EFFE013055D14FF0FF3005B0BDE8F08326
:104B100081F845203C492268186812F0800F00F1A6
:104B200004051D6001D0036802E05506FBD503882B
:104B3000D00744BF42F0200222601BB9226822F055
:104B4000200222601022B1E77546B3FBF2F002FBAF
:104B50001033CB5C05F8013D03460028F5D1B7E7DB
:104B600008681A68496910F0800F04D0101D186099
:104B70001368196007E010F0400F02F1040018609C
:104B80001368F6D01980002323617546B1E71A68CF
:104B9000111D19601568626800212846FBF718FB93
:104BA00008B1401B606063682361002384F84330D0
:104BB0009FE723692A4639463046C0470130A2D0D4
:104BC00023689B0707D5002504F11909E368039AB8
:104BD0009B1A9D4205DBE068039B9842B8BF1846CC
:104BE00093E701234A4639463046C04701308AD010
:104BF0000135EBE7002BA7D10B7884F8423004F1A4
:104C0000420565E71A4F0008094F000810B5431E1A
:104C10000A44914200D110BD11F8014B03F8014F35
:104C2000F7E7884210B501EB020303D8421E994210
:104C30000CD110BD9842F9D28118D21AD34200D1BA
:104C400010BD13F8014D01F8014DF7E711F8014BC4
:104C500002F8014FEBE7000038B50546002945D0C2
:104C600051F8043C0C1F002BB8BFE41800F0D6F834
:104C70001F4A1368104633B9636014602846BDE8C4
:104C8000384000F0CCB8A3420CD921686218934296
:104C900004BF1A685B68636004BF52182260046036
:104CA000ECE713465A680AB1A242FAD919685818B3
:104CB000A0420BD120680144581882421960DDD10E
:104CC000106852685A6001441960D7E702D90C2372
:104CD0002B60D3E7206821188A4204BF116852680C
:104CE000626004BF091821605C60C7E738BD00BF7F
:104CF0004003002070B5CD1C25F0030508350C2DB0
:104D000038BF0C25002D064601DBA94203D90C2330
:104D10003360002070BD00F081F8234A14682146FA
:104D200091B9224C23681BB9304600F067F8206027
:104D30002946304600F062F8431C26D10C2333602C
:104D4000304600F06CF8E4E70B685B1B1AD40B2BC1
:104D50000FD90B60CD50CC18304600F060F804F14C
:104D60000B00231D20F00700C31A1BD05A42E2504B
:104D700070BD8C420DBF63684B686360136018BFE1
:104D80000C46E9E70C464968CAE7C41C24F0030452
:104D9000A04205D0211A304600F030F80130CDD0C5
:104DA0002560D9E770BD00BF400300204403002008
:104DB000F8B5074614460E4621B91146BDE8F8403D
:104DC000FFF798BF22B9FFF747FF25462846F8BDF1
:104DD00000F026F884420FD921463846FFF78AFFB3
:104DE00005460028F2D031462246FFF70FFF314634
:104DF0003846FFF731FFE9E73546E7E738B5064CB7
:104E00000023054608462360FFF74CFB431C02D1F4
:104E1000236803B12B6038BD300A0020704770470B
:104E200051F8040C0028A0F10400BCBF0B58C018B6
:104E300070470000F8B500BFF8BC08BC9E4670473C
:0C4E4000F8B500BFF8BC08BC9E467047E7
:104E4C0001040208001010100410101002101010B1
:104E5C00082054454D5045524154555245203D2053
:104E6C0025642E253032640A0D002048756D696466
:104E7C006974793D202564200A0D002050726573F9
:104E8C00737572653D202564200A0D0020416E610A
:104E9C006C6F672076616C7565203D2025640A0D6A
:104EAC0000000000000000000001020304060708D7
:104EBC00090000000001020304000000A0860100AC
:104ECC00400D0300801A060000350C0040420F0014
:104EDC0080841E0000093D0000127A000024F400BA
:104EEC0000366E010048E801006CDC02232D302BEB
:104EFC002000686C4C0065666745464700303132CF
:104F0C003334353637383941424344454600303125
:104F1C003233343536373839616263646566000084
:084F2C0074B3FF7F01000000D7
:044F3400B5010008BB
:044F380091010008DB
:104F3C0089070008C9070008DD070008A907000851
:104F4C000000000000000000BD080008050A000871
:104F5C00090A000871090008010000001000000097
:104F6C002A2A2A2A2A2A2054656D70657261747562
:104F7C0072652048756D6964697479205072657327
:104F8C00737572652076616C756573206D656173E0
:104F9C007572656D656E74202A2A2A2A2A2A0A0AD5
:104FAC000D003D3D3D3D3D3E20496E697469616C8F
:104FBC00697A652054656D70657261747572652FC0
:104FCC0048756D69646974792F5072657373757265
:104FDC00652073656E736F722048545332323120E2
:104FEC000D0A003D3D3D3D3D3E2054656D706572A2
:104FFC0061747572652073656E736F7220485453BB
:10500C0032323120696E697469616C697A65642029
:10501C000D0A200000093D00EC00002000000000FB
:10502C000000000000000000000000000000000074
:10503C000000000000000000000000000000000064
:10504C000000000000000000000000000000000054
:10505C000000000000000000000000000000000044
:10506C000000000000000000000000000000000034
:0C507C0000000000000000000000000028
:040000050800452189
:00000001FF
